:1000000098EF01F00000000000EF00F00000000099
:0A0010000000000000000000F3D71C
:0E001C00ACB202D00000FCD760C0ADFF1200F5
:10002A00F250026EF29E0500FF6A0150FE6E005009
:08003A00FD6E02BEF28E120001
:10004200C7B409D01F0EC514016E0150000A03E1A6
:0A005200010E006E01D0006A1200DA
:10005C00086A080E0C6E003408360450085ED8B0DE
:0E006C0002D00826D89000360C2EF5D71200D0
:10007A0015C061F016C062F017C063F018C064F0D2
:10008A005B6A5C6A5C50120802E15B508E0807E307
:10009A00D3DF005201E003D05B4A5C2AF3D7120E89
:1000AA005C5C02E18F0E5B5C03E37B0E006E25D085
:1000BA00C580C5A021D015501610171018101BE0C6
:1000CA00000161516211631164110EE12DC0E1FF5B
:1000DA002EC0E2FF050EE66E2BC000F02CC001F028
:1000EA009FDF010E006E09D0010E0001615F000E54
:0C00FA00625B635B645BDDD7006A120090
:100106009E965BC0C9FF15C05CF016C05DF017C0B7
:100116005EF018C05FF0C7A41FD015501610171058
:10012600181019E05C505D105E105F100EE12DC0D6
:10013600E1FF2EC0E2FF040EE66E2BC000F02CC0DD
:1001460001F070DF010E006E37D0010E5C5E000E0E
:100156005D5A5E5A5F5ADFD715C05CF016C05DF077
:1001660017C05EF018C05FF09EB61FD0155016106F
:100176001710181019E05C505D105E105F100EE14C
:100186002DC0E1FF2EC0E2FF040EE66E2BC000F08C
:100196002CC001F047DF010E006E0ED0010E5C5E32
:1001A600000E5D5A5E5A5F5ADFD7C5BC02D0006AA0
:0A01B60003D0C584020E006E120093
:0401C000C5841200E0
:1001C400420E2F6E000E306E000E316E000E326E37
:1001D4007A0E376E000E386E000E396E000E3A6ECF
:1001E400FF0E336EFF0E346E000E356E000E366E4B
:1001F400FF0E4F6EFF0E506EFF0E516EFF0E526ECD
:10020400060E536E010E546E5B0E556E000E566E46
:10021400C00E3F6E010E406E000E416E000E426E27
:10022400939093928A908A9293809382C79EC79C5C
:06023400380EC66E120038
:10023A000900F5CFE6FF0006FBE10106F9E112002D
:10024A001C0E476E000E486E600E496E000E4A6E16
:10025A00FF0E4B6EFF0E4C6E000E4D6E000E4E6E74
:10026A00FF0E436EFF0E446E000E456E000E466E84
:10027A00FF0E3B6EFF0E3C6E000E3D6E000E3E6E94
:10028A00AC8A900EAB6E948E949C9EAA03D0AECF8D
:06029A0000F0FBD712008A
:1002A0005A6A57C0E9FF58C0EAFFEECF59F05950DB
:1002B000000A0DE059C060F0B1DE5A2A5A505724A6
:1002C000E96E000E5820EA6EEECF59F0F0D712001A
:1002D000D4DE57C05BF017DF58C05BF014DF59C0A5
:0802E0005BF011DF6DDF12007D
:1002E800586A575009081BE20A0E046E57C000F0FE
:1002F800B1DE00C058F000C058F058365890583653
:10030800589058365890583658900A0E046E57C070
:1003180000F0A0DE08C000F00050581202D057C00C
:0803280058F058C000F012006B
:1003300004EC02F0B886B06A670EAF6EAC8485DF5D
:100340000A0EC86E3FDFD38CD38AD3980F0EC16ECE
:10035000370E576EC9DF00C059F0D00E576E586A7D
:10036000B7DF230E576EC0DF00C059F0D00E576EB6
:10037000010E586EADDF150E576EB6DF00C059F096
:10038000D00E576E020E586EA3DFFF0E926E80A045
:1003900003D080A401D008D0010E1B6E000E1C6E8D
:1003A000196A1A6A1D6A1E6A80A203D080A601D04B
:1003B00008D01B6A1C6A010E196E000E1A6E1D6AA7
:1003C0001E6A000E1A1802E1010E191805E1250E29
:1003D000576E000E586E64DF000E1C1802E1010E0D
:1003E0001B1805E11F0E576E000E586E59DFCFD750
:0203F000FFD735
:1004080010EE15F0160E006E010E016EF20EF66E6D
:0E041800030EF76E000EF86E1DEC01F01200E0
:0403F2000000000007
:0203F600000005
:0203F800000003
:0203FA00000001
:0603FC00736967612A002D
:06040200706172652A0022
:020000040030CA
:0E000000000A091EFF0080FF0FC00FE00F4036
:00000001FF
